:020000040000FA
:100000000128831203138501880183168501880165
:100010000317880183120313803088000030A30087
:10002000013088001328880D4520881F13281828C0
:10003000803088001B28880C4520081C1B2820289D
:100040002308332088004520A30A07302306031D18
:1000500020280830A300F03088002E28880E452084
:10006000A30B2E28102882078134423424341834FC
:100070002434423481340800C730A000C730A100C6
:10008000A10B4028A00B3E280800C730A000C730B5
:0C009000A100A10B4928A00B4728080084
:04009C0000340034F8
:02400E00D528B3
:02401000FF3F70
:00000001FF
